16000000000000H3111610090400107300000OWYHEE RIVER             IRR BIA RTE 904   10.8 MI NW OF OWYHEE     999900160940000000000000420200001161312000183626208198702000000102003601000000111150000000000A15502000001000008600358000366005005008600969999N0000N0000006878N2517239977N576   000000050324N  N  N              000000000000000000       0                0N2 0100001108100 Y600001220230000NY          050608BZ                 0 0950
16000000000000H3121610090100107300000OWYHEE RIVER             IRR BIA RTE 901   6.1 MI NW OWYHEE AGENCY  999900032190000000000000420048001160942000183626208198702000000202003600570000111150000000000A15502000001000008600344000354005005008600969999N0000N0000006888N2516239787N576   000000050324N  N  N              000000000000000000       0                0N2 0100001108100 Y600002320230000NY          040409BZ                 0 1000
16000000000000P4021610000000000028450BIG JIMMEY CREEK         IRR BIA RTE 68    15KM W FT HALL IN BOTTOMS99990026100000000000000043011350112361250199362620819350100000075200400061020000005N000000000P15702000003000002800049000152002002002800559999N0000N0000004664N5153511742N046311000200030424N  N  N              0001230000370001952004   0                0N3 0100008700050 Y600015020210000NY          050608BA                 1 0413
16000000000000P4031610000000001128450SPRING CREEK             IRR BIA RTE 68    10 KM WEST OF FORT HALL  99990008900000000000000043023550112331630005362620919740200000050200450082000010005N000000000A15504000001000008200271000277004004009201019999N0000N0000006655N5432532457N536   000000030424N  N  N              000000000000000000       0                0N2 0100001100050 Y600010020210000NY          050608BA                 2 0830
16000000000000P4061610000000000028450SPRING CREEK             IRR BIA RTE 68    16KM W.FT HALL IN BOTTOMS99990000000000000000000043001060112360180199362620819750200000050200450076000010005N000000000A15504000001000007600262000277005005009101019999N0000N0000008776N5432532477N566   000000030424N  N  N              000000000000000000       0                0N2 0100001100050 Y600010020210000NY          050608BZ                 0 0925
16000000000000P4071610000000001128450SPRING CREEK             IRR BIA RTE 60    7KM W.JCT HWY 191 & RT 6099990007900000000000000043054230112301420016362620819750200000150200450091000010005N000000000A15505000001000009100265000274005005010001109999N0000N0000007874N5432532477N566   000000030424N  N  N              000000000000000000       0                0N2 0100002600100 Y600030020210000NY          050608BZ                 0 0979
16000000000000P4081610000000001128450SPRING CREEK             IRR BIA RTE 64    8 KM NW OF FORT HALL     99990027400000000000000043040050112312630008362620819830200000030200450098005011105N000000000A15502000002000009100186000381005005009100999999N0000N0000007877N5481537077N555   000000030424N  N  N              000000000000000000       0                0N2 0100001100100 Y600006020210000NY          050608BZ                 0 0930
16000000000000P4111610000000001128450BLACKFOOT RIVER          IRR BIA RTE 59    13 KM SW OF BLACKFOOT    99990005600000000000000043083740112260730003362620719900200000100200460091000011105N000000000A15505000001000009100235000244005005010101109999N0000N0000007876N5648538779N567   000000030424N  N  N              000000000000000000       0                0N2 0100002600050 Y600020020210000NY          050608BZ                 0 1000
16000000000000P4131610000001001191081BLACKFOOT RIVER          IRR BIA RTE 8     9 KM E OF HWY 191&BLKFOOT99990000000000000000000043112730112134020026362620819750200000200200450094000010005N000000000A15504000001000009100271000277005005009101019999N0000N0000007776N5432532476N547   000000030424N  N  N              000000000000000000       0                0N2 0100001100100 Y600040020210000NY          050608BZ                 0 0958
16000000000000P4151610000000001128450BLACKFOOT RIVER          IRR BIA RTE 91    5 KM SW OF BLACKFOOT     99990003400000000000000043093790112241760005362620819780200000075200450098050011115N000000000B15505000001000009200308000323005005009200989999N0000N0000004537N5243518037N034311000380030424N  N  N              0001930000420002652004   0                0N2 0100002600050 Y600015020210000NY          050608BA                 1 0319
16000000000000P4161610000003001191081BLACKFOOT RIVER          IRR BIA RTE 15    19 KM N.E. OF BLACKFOOT  99990031400000000000000043151190112082490019362620819780200000100200450104030011115N000000000B15505000001000009100247000259005005009100989999N0000N0000004355N5243518037N067311000280030424N  N  N              0001500000370002182004   0                0N2 0100002600100 Y600020020210000NY          050608BA                 1 0326
16000000000000P4211610000002101191081MAIN CANAL               IRR BIA RTE 24    4 KM EAST OF FORT HALL   99990004000000000000000043011820112232090008362620819690200000175200450094000000005N000000000A15504000001000009200177000183005005009201019999N0000N0000007778N5432532476N567   000000030424N  N  N              000000000000000000       0                0N2 0100001100150 Y600035020210000NY          050608BZ                 0 0969
16000000000000P4221610000000001191081MAIN CANAL               IRR BIA RTE 33    10 KM SOUTH OF BLACKFOOT 99990010000000000000000043061470112232900008362620819720200000075200450107039010105N000000000A15504000001000009100271000277004004009101019999N0000N0000007776N5432532477N546   000000030424N  N  N              000000000000000000       0                0N2 0100001100100 Y600015020210000NY          050608BZ                 0 0920
16000000000000P4241610000000001191081NORTH CANAL              IRR BIA RTE 10    2 KM SE OF JCT US 191& 2699990002400000000000000043095920112201800003362620919910200000025200430082000000005N000000000B15522000001000007200146000155003003007200829999N0000N0000008753N5324524355N233351000155030424N  N  N              0000360000130000562004   0                0N2 0100002600100 Y200005020210000NY          050608BA                 2 0645
16000000000000P4321610000000000028450BANNOCK CREEK            IRR BIA RTE 182   14 KM S JCT I-15 & RT 16199990000300000000000000042463060112372220002362620919720200000025200450098000010005N000000000A15522000001000009100126000128005005009201019999N0000N0000006722N5432532427N527351000128030424N  N  N              0000600000120000842004   0                0N2 0100002200050 Y200005020210000NY          050608BA                 1 0370
16000000000000P4331610000000001128450PORTNEUF RIVER           IRR BIA RTE 152   5KM N OF I-86 AT SR30 EXI99990007200000000000000042560610112324260008362620619600200000600200430088040001115N000000000B15104000004000007300091000369005005007300829999N0000N0000005676N5392523764N467381000369030424N  Y60N              0000000000000000292004   0                0N2 0100001100150 Y700120020210000NY          050608BZ                 0 0743
16000000000000P4371680000000001128450BANNOCK CREEK            IRR BIA RTE 187   .4K N&.8 K W.OF 161 & I1599990000800000000000000042531140112383480001362620819720200000050200450109000011105N000000000A16502000001000008100248000254005005008100909999H0265H0100008678N54325324663586   000000030424N  N  N              0000000000000000002004   0                0N2 0100001100100 Y800010020210000NY          050608BA                 2 0910
16000000000000P4381610000000001128450BANNOCK CREEK            IRR BIA RTE 211   1/4KM W ARBIN HWY/ELEV RD99990000250000000000000042523810112375510005362620819610200000100200450091000000005N000000000P15504000001000008500079000085003003008500919999N0000N0000007726N4045403027N078381000000030424N  N  N              0000000000000000002004   0                0N2 0100002100300 Y600020020210000NY          050608BA                 1 0409
16000000000000P5011610000000000992829LITTLE HANGMAN CREEK     IRR BIA RTE 32    8 KM SW OF AGENCY        99990002900000000000000047154930117011880008362620719720200000700200450088000000005N000000000A15501000001000009100152000158005005009101019999N0000N0000005546N5324524346N246351000158110324N  N  N              0000740000040000902003   0                0N2 0100002600100 Y300140020210000NY          050608BA                 1 0590
16000000000000P5051610000000000992829LITTLE HANGMAN CREEK     IRR BIA RTE 10    6.4 KM SW OF AGENCY      99990000500000000000000047170600117001230006362620819770200000020200350101000010005N000000000A15501000001000009100152000162005005009101019999N0000N0000006776N5432532477N565   000000110324N  N  N              000000000000000000       0                0N2 0100002600750 Y600004020210000NY          050608BZ                 0 0920
16000000000000P5061610000000000992829LITTLE HANGMAN CREEK     IRR BIA RTE 24    4 KM SOUTHWEST OF AGENCY 99990007200000000000000047171590116585260006362620819770200000020200350098000011105N000000000A15501000001000009100152000158005005009101019999N0000N0000006876N5387528877N364   000000110324N  N  N              0000000000000000002003   0                0N2 0100002600750 Y600004020210000NY          050608BZ                 0 0908
16000000000000P5071610000000000992829LITTLE HANGMAN CREEK     IRR BIA RTE 11    2.4 KM SOUTH OF AGENCY   99990000200000000000000047171100116573670005362620719770200000350200350085000011005N000000000A15501000001000008200152000162005005009101019999N0000N0000006867N5432532466N557   000000110324N  N  N              000000000000000000       0                0N2 0100002600150 Y300070020210000NY          050608BZ                 0 0979
16000000000000P5081610000000000900160LITTLE HANGMAN CREEK     IRR ROUTE 24      9.6 KM SW OF PLUMMER     99990000200000000000000047171600117050280199362620819980200000025200350050000011105N000000000A15504000001000005200177000183003003008400909999N0000N0000007787N3880352076N586   000000120324N  N  N              000000000000000000       0                0N2 0100002680800 Y800003020240000NY          050608BZ                 0 0948
1600000000000100001210000200101758600PEND OREILLE R;OLDTOWN B US 2              0.1 E. JCT. 41;IN OLDTOWN30480000201100000US00200481103001170213001173010102198804000110002004902010001111041003300564A55402000007000017900580003770000018017902173048N0000N0000006678N 660 32065N586311003770050324N  Y60N      1001    0042180004210063701997                    0N2 10000011010601Y501650020240000NN1190209   050419BK* 119512102809   0 0774
1600000000000100101210000200101765530PRIEST RIVER             US 2              AT PRIEST RIVER ECL      30480010989100000US00200481050001165341000843010102196202000056002004501220300111141002700122A15502000007000008700150001073003013008701133048N0000N0000006768N 417 29964N587311001180050324N  Y60N      1001    0017660001770026492003                    0N2 10000016001101Y300840020240000NN          050419BZ                 0 0663
1600000000000100151210000200101700000JOHNSON CREEK            US 2              3.4 E. LACLEDE           30480029350100000US00200481242001164311000843010102197002000037002004501220450111140000000000A15502000003000010400143000440000000010401133048N0000N0000006668N 417 29065N586311000527050324N  Y60N      1001    0007230000720010852003                    0N2 1000001600160 Y800555020240000NN          050419BZ                 0 0766
1600000000000100251210000200101700000UPRR AND BNRR(DOVER BR)  US 2              0.1 W. DOVER WCL         04700040906100000US00200481507001163633000843010114193702000048002004201100000000050000000000A12310104001000207300610000899000000007300870470R0681R041000444NN231521082255N6311001079050412Y12N  N  0504        0016140001610024212003                    0N2 1000001688120 YN00720020240000NN1180043   050419BA  118512103110   1 0030
1600000000000100301210000200102155270UPRR;MOYIE SPRINGS OP    US 2              IN MOYIE SPRINGS         30480112622100000US00200484349001161051001993010102196502000021002004501040100001140000000000A12204000003000008600168000442006006008601053048R0897R061067676NN 432 2886485N8311000530070324N  N  N              0007270000730010912003                    0N2 1000001600111 YN00315020240000NN          050419BZ                 0 0623
1600000000000100351210000200102155270MOYIE R.GORGE;MOYIE BR.  US 2              IN MOYIE SPRINGS         30480112741100000US00200484347001161049001993010102196502000021002004501100000001140000000000A15309302003000308501152003725006006008501053048N0000N0000006659N2360221654N598311003734070324Y24N  N  0703        0051210005120076822003                    0N2 1000001600111 Y900315020240000NN1180221   050419BZ  118510100214   0 0480
1600000000000100401310000300206900000ARROW GULCH              SH 3              8 S. JULIAETTA           30480000151100000SH00301462821001164619000403010106196802000021002004501040000001040000000000A15502000001000010400195000201001001010401123048N0000N0000007868N 441 31565N588   000000080324N  N  N              000000000000000000                        0N2 0100001600140 Y900315020240000NN          050419BZ                 0 0927
1600000000000100551310000300206900000LITTLE POTLATCH CREEK    SH 3              3.5 S. JULIAETTA         30480007876100000SH00301463124001164351000183010106198802000021002004601040300101040000000000A15502000001000011200177000186000000011201213048N0000N0000007878N2753251775N587   000000080324N  N  N              000000000000000000                        0N2 0100001601140 Y900315020240000NN          050419BZ                 0 0962
1600000000000100601310000300205742130M.FK.POTLATCH CREEK      SH 3              AT JULIAETTA NCL         30480014928100000SH00301463459001164210000403010106195402000031002004300850150001040000000000A15102000001000008500216000226003003008500973048N0000N0000007768N 333 23464N578331000317080324N  N  N              0004350000440006532003                    0N2 0000001600130 Y800465020240000NN          050419BZ                 0 0639
1600000000000100701310000300205742760BIG BEAR CREEK           SH 3              AT KENDRICK NCL          30480021483100000SH00301463653001163844000563010106195402000020002004300790000011140000000000A55102000003000008500140000430023006008501163048N0000N0000006766N1372121855N576331000515070324N  N  N              0007060000710010592003                    0N2 0000001600200 Y700300020240000NN          050419BZ                 0 0723
1600000000000100801310000300205700000W.FK.POTLATCH RIVER      SH 3              3.5 N. BOVILL            30480069237100000SH00301465442001162333000643010106195502000005802004300850000001140000000000A15104000001000008500101000104000000008500943048N0000N0000008766N1363121855N578   000000070324N  N  N              000000000000000000                        0N2 0000001600310 Y300087020240000NN          050419BZ                 0 0836
1600000000000100901310000300107900000ST MARIES RIVER          SH 3              3.3 N. CLARKIA           30480092304100000SH00301470303001161716000773010106195502000006902004300820200000040000000000A15102000003000007900104000320003003007900873048N0000N0000006666N 360 26165N566311000418070424N  Y60N      1001    0005210000520007822004                    0N2 0000001688290 Y300103520240000NN          050419BZ                 0 0832
1600000000000100931310000300107900000CHILDS CREEK             SH 3              5.2 N. CLARKIA           30480095440100000SH00301470406001161907000773010106200202000006902004900820130001140000000000A15505000001000009100070000073000000009101123048N0000N0000008888N1906173586N578   000000070424N  N  N              000000000000000000                        0N2 0000002601290 Y600103520240000NN          050419BZ                 0 0962
1600000000000101111310000300100900000RENFRO CREEK             SH 3              @ SANTA SCL              30480109606100000SH00301470856001162650001243010106199402000016002004900730300001040000000000A15501000001000009000098000104000000009001103048N0000N0000006668N1486140565N588   000000070424N  N  N              000000000000000000                        0N2 0000002691140 Y800240020240000NN          050419BZ                 0 0801
1600000000000101151310000300100900000ST MARIES RIVER          SH 3              AT SANTA NCL             30480110061100000SH00301470906001162706001993010106197702000013002004501040000101141002000250A15502000003000011200259000738000000011201213048N0000N0000006766N 432 29766N598311000847070424N  Y60N      1001    0006210000620009322001                    0N2 00000011001601Y300195020240000NN          050419BZ                 0 0812
1600000000000101311310000300105500000EVANS CREEK              SH 3              9.1 S. ROSE LAKE         30480169446100000SH00302472730001163454000053010106199402000011002004901010000111140000000000A15502000001000010200235000241000000010201103048N0000N0000007878N1558142375N587   000000070324N  N  N              000000000000000000                        0N2 0000001101170 Y800165020240000NN          050419BZ                 0 0987
1600000000000101361310000300105500000ROSE LAKE OVERPASS       SH 3              3.1 S. ROSE LAKE         30480179100100000SH00302473119001163054001353010106199702000013002004901100550111140000000000A13502000003000011200268000783000000011201213048N0000N000000686NN1726154466N5N8   000000070324N  N  N              000000000000000000                        0N2 0000001101150 YN00195020240000NN          050419BZ                 0 0892
1600000000000101411310000300105500000CDA RIVER;ROSE LAKE      SH 3              3.0 S. ROSE LAKE         30480179248100000SH00302473122001163054001353010106199702000013002004901040150111140000000000A15402000003000011200503001314000000011201213048N0000N0000006868N1771146366N588   000000070324N  Y60N      1001    000000000000000000                        0N2 0000001101150 Y600195020240000NN          050419BZ                 0 0892
1600000000000101451310000300105500000FOURTH OF JULY CREEK     SH 3              3.1 N. ROSE LK.;JCT I 90 30480189170100000SH00302473424001162632000683010106196202000027002004501040000000040000000000A15102000003000009200091000283000000009201003048N0000N0000006668N 522 39664N588311000369070324N  N  N              0005060000510007592003                    0N2 0019811188070 Y500405020240000NN          050419BZ                 0 0762
1600000000000101501310000300105500000I 90 EB-WB;ROSE LAKE IC  SH 3              21.1 E. COEUR D'ALENE    30480189295100000SH00302473428001162632000003010106196202040017002004501040000000040000000000A61502000004000009200165000637000000009201013048H0505H028013666NN 513 3246535N8   000000070324N  N  N              000000000000000000                        0N2 0019811600090 YN00255020240000NN          050419BA                 2 0833
1600000000000101561310000400107900000CANYON CREEK;FRISCO BR.  SH 4              2.1 S. BURKE             304800084840000000000000473045001155123001993010107199902000002802004900790400001140000000000A15107000001000009100082000088000000009101103048N0000N0000006668N1807148166N588   000000090424N  N  N              000000000000000000                        0N2 0000001620140 Y600042020240000NN          050419BZ                 0 0914
1600000000000101611310000400107900000CANYON CREEK;TAMARACK BR SH 4              1.5 S. BURKE             304800094150000000000000473059001155118002003010107200402000002802004900910650111140000000000A15107000001000009000088000098000000009001243048N0000N0000007798N 572 40876N588   000000110424N  N  N              000000000000000000                        0N2 0000001620140 Y600042020240000NN          050419BZ                 0 0924
1600000000000101661310000400107900000CANYON CREEK; LOWER MACE SH 4              1.2 S. BURKE             304800097280000000000000473054001155052002003010107200402000001902004900910550111140000000000A15107000001000008900098000107000000008901083048N0000N0000009998N 572 40896N588   000000110424N  N  N              000000000000000000                        0N2 0000001620210 Y600028520240000NN          050419BZ                 0 0932
1600000000000101701310000400107900000CANYON CREEK             SH 4              0.5 S. BURKE             304800110840000000000000473112001154948001993010107197602000001902004501160300100040000000000A15107000001000010600064000064000000010601153048N0000N0000008877N1581134577N578   000000090424N  N  N              000000000000000000                        0N2 0000001688210 Y800028520240000NN          050419BZ                 0 0861
1600000000000101751310000500100963910ST.MARIES RR             SH 5              IN PLUMMER               30480000681100000SH00501472007001165245000563010106193702000025002004200940450000030000000000A12204000007000008800195001219000000008801013048R0610R0370004559N 648 4325445N8311001341070412N  N  N              0018390001840027592003                    0N2 0100001600060 YN00375020240000NN          050419BA                 1 0635
1600000000000102011310000500100913870BENEWAH CREEK            SH 5              @ CHATCOLET ECL          30480018844100000SH00501472011001164100000563010106199602000016002004901070000111140000000000A15502000001000010800347000354000000010801163048N0000N0000006868N1653151766N587   000000070324N  N  N              000000000000000000                        0N2 0100001101100 Y600240020240000NN          050419BZ                 0 0957
1600000000000102061310000700203559320CLEARWATER RIVER         SH 7              @ OROFINO                304800793390000000000000462840001161532000713010107199803000074002004901190001111140000000000A55402101003000112000457001305015015012001553048N0000N0000006868N5567540564N586311001423100324N  Y60N      1004    0011580001160017372001                    0N2 0100001101050 Y601110020240000NN          050419BZ                 0 0678
1600000000000102111310000700203500000N.FK. CLEARWATER RIVER   SH 7              AT AHSAHKA               304800855960000000000000463012001161915000053010107199902000018002004900850000111141007000720A15402000003000008500750001600015000008501073048N0000N0000006878N5567540575N598   000000100324N  Y60N      1004    000000000000000000                        0N2 01000011010601Y600270020240000NN          050419BZ                 0 0910
1600000000000102151310000800205754550PARADISE CREEK           SH 8              EAST SIDE OF MOSCOW      304800045140000000000000464320001165929000023010116198303000110002004502010300111140000000000A55501000001000020300104000107022000020302323048N0000N0000006667N 680 42669N588   000000070324N  N  N              000000000000000000                        0N2 0000001600050 Y501650020240000NN          050419BZ                 0 0990
1600000000000102211310000800205700000S.FK.PALOUSE RIVER       SH 8              2.2 E. MOSCOW ECL        30480008008100000SH00800464322001165651000073010106200202000049002004901420300111150000000000A15504000001000014200159000168000000014201503048N0000N0000009998N 572 40899N568   000000070424N  N  N              000000000000000000                        0N2 0000002621050 Y600735020240000NN          050419BZ                 0 0984
1600000000000102351310000800205782360LITTLE BEAR CREEK        SH 8              AT TROY WCL              30480022619100000SH00800464413001164626000053010106194802000032002004201040450000030000000000A15107000001000015200076000079000000015201593048N0000N0000005556N1898154459N566   000000070324N  N  N              000000000000000000                        0N2 0000001600040 Y800480020240000NN          050419BZ                 0 0841
1600000000000102401310000800205700000BIG MEADOW CREEK         SH 8              0.2 E. TROY CL           30480024159100000SH00800464359001164525000533010106197902000028002004501040500111040000000000A15319000001000010400079000079000000010403133048N0000N000000NNN765450532465N587   000000070324N  N  N              000000000000000000                        0N2 000000NNNN040 Y800420020240000NN          050419BZ                 0 0919
1600000000000102451310000800205700000BIG BEAR CREEK           SH 8              2.0 W. DEARY             30480038262100000SH00800464703001163611000053010106196802000013002004500980000000040000000000A15102000003000009100122000305000000009101023048N0000N0000007768N 432 30665N588   000000070424N  N  N              000000000000000000                        0N2 0000001600080 Y800195020240000NN          050419BZ                 0 0861
1600000000000102501310000800205700000W.FK.POTLATCH RIVER      SH 8              0.1 W. BOVILL            30480058147100000SH00303465126001162400001993010106195802000013002004500850000000040000000000A15104000001000008500152000158003003008501003048N0000N0000006668N1381122765N588331000238070424N  N  N              0002960000300004442004                    0N2 0000001600110 Y800195020240000NN          050419BZ                 0 0587
1600000000000102551310000800205700000E.FK.POTLATCH CREEK      SH 8              1.9 S. BOVILL            304800613060000000000000465006001162331001993010107195502000003202004400910300000040000000000A15104000001000008500119000122000000008500943048N0000N0000006768N1399123666N587331000195070424N  N  N              0001820000180002732004                    0N2 0000001100280 Y800048020240000NN          050419BZ                 0 0802
1600000000000102601310000800203500000RUBY CREEK               SH 8              5.6 SE. BOVILL           304800691530000000000000464820001161917001993010107197602000003202004500850550100040000000000A15502000003000009400262000747000000009401033048N0000N0000006768N1363121866N588351000896070424N  N  N              0002480000250003722003                    0N2 0000001600280 Y900048020240000NN          050419BZ                 0 0783
1600000000000102701310000900205700000E.FK.BEAR CREEK          SH 9              2.3 NW. DEARY            304800032710000000000000464913001163555000053010107198202000012002004600910200101040000000000A15502000001000009400186000198000000009401033048N0000N0000007878N1481132775N588   000000070424N  N  N              000000000000000000                        0N2 0000001601140 Y800180020240000NN          050419BZ                 0 0952
1600000000000102751310000900205700000BIG BEAR CREEK           SH 9              3.2 NW. DEARY            304800047050000000000000464922001163659000903010107198202000006402004600940300101040000000000A15504000001000009400146000155000000009401033048N0000N0000008878N 486 34276N578   000000070424N  N  N              000000000000000000                        0N2 0000001601230 Y800096020240000NN          050419BZ                 0 0958
1600000000000102901310000900205700000FLAT CREEK               SH 9              9.1 NW. DEARY            304800142190000000000000465153001164300000823010107195902000007802004200850300111140000000000A15107000001000008800073000079000000008801043048N0000N0000007766N1513130665N568   000000070424N  N  N              000000000000000000                        0N2 0000001600140 Y800117020240000NN          050419BZ                 0 0883
1600000000000102951310000900205700000PALOUSE RIVER            SH 9              13.6 NW. DEARY           304800212270000000000000465454001164428000183010107195302000006802004300820000111140000000000A15204000003000007900201000344000000007900913048N0000N0000006665N 333 23465N588   000000070424N  N  N              000000000000000000                        0N2 0000001600160 Y800102020240000NN          050419BZ                 0 0850
1600000000000103001310001100206100000CLEARWATER R.;GREER BR.  SH 11             AT GREER WCL             304800000160000000000000462331001161044000473010107195402000010002004200980000000040000000000A15402200003000107900378001106008008007900953048N0000N0000006667N1333119855N576331001216100424N  Y60N      1002    0015920001590023882004                    0N2 0100001600130 Y800150020240000NN          050419BZ                 0 0619
1600000000000103051310001100203586050JIM FORD CREEK           SH 11             NEAR WEIPPE WCL          304800285430000000000000462233001155630000473010107198702000014002004601040000101140000000000A15504000001000011300149000152000000011301223048N0000N0000008778N 531 38776N588   000000060424N  N  N              000000000000000000                        0N2 0000001601110 Y800210020240000NN          050419BZ                 0 0969
1600000000000103151310001100203500000OROFINO CREEK            SH 11             0.4 S. PIERCE            304800461380000000000000462842001154756000003010107197102000012002004500910450100040000000000A15502000001000008800186000195000000008800983048N0000N0000007878N1414130675N587   000000060424N  N  N              000000000000000000                        0N2 0000001601070 Y800180020240000NN          050419BZ                 0 0900
1600000000000103201310001100203562740CANAL CREEK;PIERCE BR.   SH 11             AT PIERCE NCL            304800477300000000000000462933001154800000003010107197502000005802004500910000111140000000000A15502000001000013000119000122000000013001383048N0000N0000007778N 504 35179N567   000000060424N  N  N              000000000000000000                        0N2 0000001500140 Y300087020240000NN          050419BZ                 0 1000
1600000000000103251310001100203500000QUARTZ CREEK;N.PIERCE BR SH 11             0.7 N. PIERCE            304800494070000000000000462959001154846000473010107195802000005802004500670450000040000000000A15107000001000010000107000113000000010001093048N0000N0000007767N1396124366N564   000000060424N  N  N              000000000000000000                        0N2 0000001600140 Y800087020240000NN          050419BZ                 0 0860
1600000000000103351310001100203500000QUARTZ CREEK;THREE MILE  SH 11             1.8 N. PIERCE            304800510260000000000000463046001154858000473010107197202000005802004500670400000040000000000A15501000001000009100116000122000000009100983048N0000N0000006667N1387127066N566   000000060424N  N  N              000000000000000000                        0N2 0000001600140 Y300087020240000NN          050419BZ                 0 0915
1600000000000103451310001100203500000QUARTZ CREEK(JAYPE BR)   SH 11             2.6 N. PIERCE            304800525130000000000000463110001154943000473010107195802000005802004500670150000040000000000A15107000001000009100064000064000000009100983048N0000N0000007777N1378122566N567   000000060424N  N  N              000000000000000000                        0N2 0000001600140 Y800087020240000NN          050419BZ                 0 0854
1600000000000103501310001100203500000QUARTZ CREEK;HOLLYWOOD   SH 11             5.4 N. PIERCE            304800569060000000000000463324001155009000003010107197502000005202004500670000000040000000000A15502000001000011200119000122000000011201203048N0000N0000006778N 477 33377N567   000000060424N  N  N              000000000000000000                        0N2 0000001101150 Y800078020240000NN          050419BZ                 0 0970
1600000000000103551310001100203500000REEDS CREEK              SH 11             0.9 S. HEADQUARTERS      304800670520000000000000463712001154828000003010107195802000002902004500910150000040000000000A15107000001000009200079000082000000009201013048N0000N0000007778N1549133376N588   000000060424N  N  N              000000000000000000                        0N2 0000001600280 Y800043520240000NN          050419BZ                 0 0970
1600000000000103601210001200206946540US 12;SNAKE R;INTERSTATE US 12             IN LEWISTON AT STATE LINE04700000000100000US01201462520001170220000033010114193904020200002004201220000000051013000490A56315310003001412200610004365020000012201470470H0493H0099984657N14141252522583321005182090412Y24Y60N  09040901    0042380004240133642005530500002348A00000000N2 10000011000701Y303000020240080NNH050014   050419BA  H05411710314   1 0498
1600000000000103751210001200206946540CLEARWATER RIVER;BNRR    US 12             IN LEWISTON              30480003122100000US01202462501001170000000373010114195104000290002004301522000000041004000320A57402000012000014600341004289015015014601893048R0716R0000006668N14051243622587311004289020524N  Y60N      1002    0064160006420096242005                    0N2 10000011000702Y304350020240000NN1180003   050419BA  118411010210   2 0515
1600000000000103851210001200206900000APRROACH RD;CATHOLIC CR. US 12             9.3 E. LEWISTON          30480022365100000US01205462736001164713000033010102196802000065002004501220000001040000000000A15502000003000012200149000402001001012201313048H0503H0090007877N 450 31575N588   000000020524N  N  N              000000000000000000                        0N2 1100001600150 Y800975020240000NN          050419BZ                 0 0958
1600000000000103901210001200206900000CLWATER R.;NPRR;ARROW BR US 12             10.4 E. LEWISTON         30480024076100000US01205462817001164625000033010102197202000044002004501220341111141002000360A17402000008000012400762003804000000012401343048R0716R0610006567N15811354568588   000000020524N  Y60Y48    10020303000000000000000000                        0N2 11000011001701Y300660020240000NN          050419BZ                 0 0883
1600000000000103961210001200206900000COTTONWOOD CREEK         US 12             14.6 E. LEWISTON         30480030878100000US01205463000001164248000193010102199702000039002004901310000111140000000000A15502000001000013200268000277000000013201403048N0000N0000006888N1680148186N588   000000030424N  N  N              000000000000000000                        0N2 1100001101170 Y600585020240000NN          050419BZ                 0 0965
1600000000000104051210001200206900000BIG CANYON CREEK         US 12             5.9 W. OROFINO           30480056177100000US01205462947001162604000133010102198402000039002004901280150111040000000000A15502000001000013000357000366000000013001393048N0000N0000008788N 540 38776N578   000000030424N  N  N              000000000000000000                        0N2 1100001601130 Y900585020240000NN          050419BZ                 0 0976
1600000000000104261210001200206142400CLEARWATER R.(KAMIAH BR) US 12             IN KAMIAH                30480107417100000US01205461349001160107001993010102199802000051002004901070990111140000000000A55502000007000010800363002048012012010801463048N0000N0000006768N5572540864N586311002252100424N  Y60N      1002    0033640003360050462003                    0N2 1100001101100 Y600765020240000NN          050419BZ                 0 0780
1600000000000104601210001200204900000DEADMAN CREEK            US 12             10 E. LOWELL             30480171609100000US01205461336001153006001993010102195702000006802004500850000001040000000000A15204000003000008500168000259000000008500993048N0000N0000006778N1399124565N587311000338090424N  N  N              0004220000420006332004                    0N2 1000001100260 Y800102020240000NN          050419BZ                 0 0778
1600000000000104701210001200204900000FISH CREEK               US 12             23.5 E. LOWELL           30480193279100000US01205462000001152047001993010102195302000006802004300760000000040000000000A15104101001000208500183000326000000008500933048N0000N0000006558N1345120955N587331000408090424N  N  N              0005090000510007642004                    0N2 1000001600260 Y800102020240000NN          050419BZ                 0 0584
1600000000000105001210001200204900000POST OFFICE CREEK        US 12             48.1 E. LOWELL           30480232944100000US01205462759001145909001993010102196002000006802004500730000001140000000000A15204000003000008700152000229006006008700993048N0000N0000008888N 306 20755N588311000341040324N  N  N              0004260000430006392003                    0N2 1000001600260 Y800102020240000NN          050419BZ                 0 0713
1600000000000105051210001200204900000SQUAW CREEK              US 12             20.6 W. IDA-MONT LINE    30480247529100000US01205462933001145130001993010102196002000006802004500730000001140000000000A15204000003000008000152000244000000008000933048N0000N0000006767N1414125265N587361000341040324N  N  N              0004260000430006392003                    0N2 1000001600260 Y800102020240000NN          050419BZ                 0 0749
1600000000000105101210001200204900000PAPOOSE CREEK            US 12             15 W. IDA-MONT LINE      30480256519100000US01205463041001144543001993010102195702000006802004500730000001140000000000A15102000003000008500094000287000000008500943048N0000N0000006667N 378 26165N586311000448040324N  N  N              0005590000560008392003                    0N2 1000001600260 YU00102020240000NN          050419BZ                 0 0810
1600000000000105151210001200204900000CROOKED FK.CLEARWATER R. US 12             4.7 W. IDA-MONT LINE     30480273074100000US01205463449001143642001993010102196002000007702004500850000001040000000000A15502000005000008500238000884000000008500983048N0000N0000006668N 333 23465N586361000972040324N  N  N              0012120001210018182003                    0N2 1000001600230 Y300115520240000NN          050419BZ                 0 0667
1600000000000105201270001200206946540US 95 SBL;LEWISTON IC    US 12RAMP NBL     AT LEWISTON NCL          304805024670000000000000462548001165941000003010114197702010006402004501100410111140000000000A71205000003000011800433001158000000011801273048H0526H000000666NN166213996935N8   000000030424N  N  N              000000000000000000                        0N1 1000001600140 YN00096020240000NN          050419BA                 2 0960
1600000000000105351310001300204900000S.F.CLEARWATER;HARPSTER  SH 13             1.1 S. HARPSTER          30480018049100000SH00304455733001155738000773010106198502000010002004901040320101040000000000A15502000002000010400305000607000000010401133048N0000N0000007878N 522 36976N587   000000100324N  N  N              000000000000000000                        0N2 0000001601090 Y800150020240000NN          050419BZ                 0 0951
1600000000000105561310001300204900000M.FK.CLEARWATER RIVER    SH 13             KOOSKIA NWCL             30480042110100000SH00304460845001155845000033010106199402000025002004901250000111140000000000A15402000003000012600671001756000017012601503048N0000N0000006878N1717143576N588   000000020424N  Y60N      1002    000000000000000000                        0N2 0100001101100 Y800375020240000NN          050419BZ                 0 0997
1600000000000105601340001300204944110M.F.CLWATER R.;E.KOOSKIA SH 13B            EAST KOOSKIA             304800011310000000000000460829001155800001993010107193502000011002004200670000000030000000000A55310303003000206100366001122000018006100653048N0000N0000005456N1345110922N565311001234020512Y12Y60N  02051002    0013080001310019622003                    0N2 0100001100230 Y800165020240000NN          050419BA                 1 0050
1600000000000105651310001400204900000S.FK.CLEARWATER;GOLDEN   SH 14             8.7 S. JCT SH 13-14      304800139610000000000000455318001160206001993010107198502000005602004900850000101040000000000A15302000001000009400402000418000000009401033048N0000N0000007778N1889153576N588   000000100324N  N  N              000000000000000000                        0N2 0000001601130 Y800084020240000NN          050419BZ                 0 0888
1600000000000105701310001400204900000MEADOW CREEK             SH 14             14.1 N. GOLDEN           304800273430000000000000454944001155544001993010107198302000004702004500850000100040000000000A15501000001000010100140000149000000010101103048N0000N0000007778N 626 33376N588   000000100324N  N  N              000000000000000000                        0N2 0000001601150 Y800070520240000NN          050419BZ                 0 0886
1600000000000105751310001400204900000SILVER CREEK             SH 14             6.5 N. GOLDEN            304800396510000000000000454821001154729001993010107198302000006202004500850000100040000000000A15501000001000010100195000198000000010101103048N0000N0000006768N 735 45066N576   000000100324N  N  N              000000000000000000                        0N2 0000001601110 Y800093020240000NN          050419BZ                 0 0872
1600000000000105801310001400204900000NEWSOME CREEK            SH 14             5.4 S. GOLDEN            304800586600000000000000454943001153656001993010107195302000006202004500850000101040000000000A15104000003000009800168000259000000009801083048N0000N0000006867N1363121856N577311000338100324N  N  N              0002060000210003062001                    0N2 0019781600110 Y800093020240000NN          050419BZ                 0 0750
1600000000000105851310001400204900000ELK CREEK                SH 14             0.2 W. ELK CITY          304800787640000000000000454925001152649000113010107198302000007602004500850450000040000000000A15319000001000008500073000091000000008502293048N0000N000000NNN765450532465N578   000000100324N  N  N              000000000000000000                        0N2 000000NNNN080 Y800114020240000NN          050419BZ                 0 0881
1600000000000105901110008600403100000I 84 WB-EB;SALT LAKE IC  I 86  WBL         13.8 E. BURLEY           304800000001000000I08600423415001133107000023010101196002040062002004501160450111140000000000A61502000004000009100210000698000000009101053048H0511H023034666NN 333 2345425N8311000789110424N  N  N              0009350000930014022004                    1R1 1000001600351 YN00930020240000NN          050419BA                 2 0663
1600000000000106001110008600403100000I 84 WB-EB;SALT LAKE IC  I 86  EBL         13.8 E. BURLEY           304800000161000000I08600423413001133104000023010101196002040062002004501160450111140000000000A61502000004000009100210000698000000009101053048H0490H023034655NN 333 2345425N8311000789110424N  N  N              0009350000930014022004                    1L1 1000001600351 YN00930020240000NN          050419BA                 2 0561
1600000000000106151110008600403100000FARM RD;MACHINE PASS GS  I 86  EBL         20.3 E. BURLEY           304800103481000000I08600423456001132331000023010101196002010063002004501160000001040000000000A11107000001000014000073000079003003014001463048H0389H000000666NN158113456935N8   000000060424N  N  N              000000000000000000                        1R1 1000001600321 YN00945020240000NN          050419BA                 2 0914
1600000000000106201110008600403100000FARM RD;MACHINE PASS GS  I 86  WBL         20.3 E. BURLEY           304800103641000000I08600423459001132332000023010101196002010063002004501160000001040000000000A11107000001000014000073000079003003014001463048H0404H000000666NN158113456935N8   000000060424N  N  N              000000000000000000                        1L1 1000001600321 YN00945020240000NN          050419BA                 2 0914
1600000000000106351110008600403100000COUNTY RD;OLD US 30N GS  I 86  EBL         27.6 E. BURLEY           304800221721000000I08600423546001131457000023010101196002020063002004501160000001040000000000A11102000003000011600107000329003003011601223048H0465H012015766NN 342 2436645N8   000000060424N  N  N              000000000000000000                        1R1 1000001600321 YN00945020240000NN          050419BZ                 0 0858
1600000000000106401110008600403100000COUNTY RD;OLD US 30N GS  I 86  WBL         27.6 E. BURLEY           304800221731000000I08600423548001131457000023010101196002020063002004501160000001040000000000A11102000003000011600107000329003003011601223048H0462H012015766NN 342 2436645N8   000000060424N  N  N              000000000000000000                        1L1 1000001600321 YN00945020240000NN          050419BZ                 0 0858
1600000000000106451110008600403100000RAFT RIVER               I 86  EBL         28.1 E. BURLEY           304800230461000000I08600423551001131419000023010101196002000063002004501160000001040000000000A15104000001000011500152000158003003011601223048N0000N0000006665N 306 21656N588   000000060424N  N  N              000000000000000000                        1R1 1000001600321 Y300945020240000NN          050419BZ                 0 0828
1600000000000106501110008600403100000RAFT RIVER               I 86  WBL         28.1 E. BURLEY           304800230621000000I08600423552001131419000023010101193002000063002004201160000001030000000000A15104000002000012200076000158003003012201303048N0000N0000006655N1408124557N588311000229060424N  N  N              0002710000270004072003                    1L1 1000001600321 Y500945020240000NN          050419BZ                 0 0770
1600000000000106551110008600403100000YALE ROAD;RAFT RIVER IC  I 86  EBL         28.6 E. BURLEY           304800238131000000I08600423556001131346000003010101196002020063002004501160000001040000000000A61102000003000011600107000329003003011601223048H0460H015015656NN 342 2435645N8311000402060424N  N  N              0004770000480007162004                    1R1 1000001600321 YN00945020240000NN          050419BZ                 0 0755
1600000000000106601110008600403100000YALE ROAD;RAFT RIVER IC  I 86  WBL         28.6 E. BURLEY           304800238151000000I08600423557001131346000003010101196002020063002004501160000001040000000000A61102000003000011600107000329003003011601223048H0467H015015666NN 342 2436645N8   000000060424N  N  N              000000000000000000                        1L1 1000001600321 YN00945020240000NN          050419BZ                 0 0865
1600000000000106651110008600507700000COUNTY ROAD GS           I 86  WBL & EBL   19.6 W. AMERICAN FALLS   304800303201000000I08600423644001130910000643010101197904020062002004502622000110040000000000A11107000001000015200076000082000000062206283048H0444H002000777NN158113547925N8311000140030424N  N  N              0003670000370005512005                    1N2 1000001190351 YN00930020240000NN          050419BA                 2 0799
1600000000000106751110008600507700000LANES GULCH              I 86  & RAMPS     17.9 W. AMERICAN FALLS   304800332091000000I08600423717001130703000033010101198106000063002004505002300NNNN40000000000A15119000002000015900040000082000000084608533048N0000N000000NNN772898251779N588   000000030424N  N  N              000000000000000000                        1N2 100000NNNN321 Y800945020240000NN          050419BZ                 0 0971
1600000000000106801110008600507700000FALL CREEK               I 86  EBL         16.2 W. AMERICAN FALLS   304800361141000000I08600423736001130508000023010101198102000063002004501220000111040000000000A15502000001000012400305000311000000012401333048N0000N0000007778N1408130877N588   000000030424N  N  N              000000000000000000                        1R1 1000001601321 Y800945020240000NN          050419BZ                 0 0967
1600000000000106851110008600507700000FALL CREEK               I 86  WBL         16.2 W. AMERICAN FALLS   304800361301000000I08600423738001130509000023010101198102000063002004501220000111040000000000A15502000001000012400305000311000000012401333048N0000N0000007778N1408130877N588   000000030424N  N  N              000000000000000000                        1L1 1000001601321 Y800945020240000NN          050419BZ                 0 0967
1600000000000106951110008600507700000DAIRY CANYON;FRONTAGE RD I 86  EBL         13.2 W. AMERICAN FALLS   304800407811000000I08600423836001130201000023010101198302020063002004501160400111140000000000A16502000001000012400351000360000000012401333048H0457H0180007768N 680 387674588   000000050424N  N  N              000000000000000000                        1R1 1000001601321 Y800945020240000NN          050419BZ                 0 0954
1600000000000107001110008600507700000DAIRY CANYON;FRONTAGE RD I 86  WBL         13.2 W. AMERICAN FALLS   304800407971000000I08600423838001130201000023010101198302020063002004501160400111140000000000A16502000001000012400351000360000000012401333048H0457H0180007768N 680 387674588   000000050424N  N  N              000000000000000000                        1L1 1000001601321 Y800945020240000NN          050419BZ                 0 0954
1600000000000107051110008600507700000ROCK CR;MASSACRE ROCK BR I 86  EBL         12.1 W. AMERICAN FALLS   304800426311000000I08600423908001130050000023010101198002000063002004501160000001040000000000A15502000003000012800177000543000000012801363048N0000N0000007768N 504 30668N588   000000090424N  N  N              000000000000000000                        1R1 1000001601321 Y800945020240000NN          050419BZ                 0 0946
1600000000000107101110008600507700000ROCK CR;MASSACRE ROCK BR I 86  WBL         12.1 W. AMERICAN FALLS   304800426331000000I08600423909001130051000023010101196302000063002004501160000001040000000000A15502000003000011700171000515000000011701243048N0000N0000007768N 414 29766N588   000000090424N  N  N              000000000000000000                        1L1 1019851630321 Y800945020240000NN          050419BZ                 0 0940
1600000000000107351110008600507700000FARM ROAD;MACHINE PASS   I 86  WBL & EBL   6.5 W. AMERICAN FALLS    304800514721000000I08600424221001125609000083010101198004000063002004501160000NNNN40000000000A10107000001000028000076000082000000056105673048N0000N000000777NN1626138179N5N8   000000090424N  N  N              000000000000000000                        1N2 1000001190321 YN00945020240000NN          050419BZ                 0 0956
1600000000000107501110008600507700000WARM CREEK ROAD GS       I 86  EBL         4.6 W. AMERICAN FALLS    304800546981000000I08600424331001125423000023010101198002020064002004501160150111040000000000A11502000003000012400128000396000000012401333048H0521H017000777NN 441 2706735N8   000000090424N  N  N              000000000000000000                        1R1 1000001601311 YN00960020240000NN          050419BA                 2 0893
1600000000000107551110008600507700000WARM CREEK ROAD GS       I 86  WBL         4.6 W. AMERICAN FALLS    304800547001000000I08600424332001125424000023010101198402020064002004501160150111040000000000A11502000003000012400128000396000000012401333048H0503H017000777NN 441 2706735N8   000000090424N  N  N              000000000000000000                        1L1 1000001601311 YN00960020240000NN          050419BA                 2 0893
1600000000000107651110008600507701900SUNBEAM ROAD GS          I 86  EBL         AT AMERICAN FALLS        304800620901000000I08600424637001125055000023010101195902020062002004501190000111140000000000A11102000003000011600110000329000000011601223048H0455H014000766NN144512636645N8   000000070424N  N  N              000000000000000000                        1R1 1000001600321 YN00930020240000NN          050419BZ                 0 0905
1600000000000107701110008600507701900SUNBEAM ROAD GS          I 86  WBL         AT AMERICAN FALLS        304800620921000000I08600424639001125055000023010101195902020062002004501190000111140000000000A11102000003000011600110000329000000011601223048H0434H014000666NN144512636645N8   000000070424N  N  N              000000000000000000                        1L1 1000001600321 YN00930020240000NN          050419BZ                 0 0905
1600000000000107751110008600507700000PRIVATE RD.;MACHINE PASS I 86  EBL         NEAR AMERICAN FALLS      304800632201000000I08600424702001125024000023010101195902000062002004501190000111140000000000A10107000001000012500076000079000000012501523048N0000N000000776NN1599135467N5N8   000000070424N  N  N              000000000000000000                        1R1 1000001600321 YN00930020240000NN          050419BZ                 0 0974
1600000000000107801110008600507700000PRIVATE RD.;MACHINE PASS I 86  WBL         NEAR AMERICAN FALLS      304800632211000000I08600424703001125024000023010101195902000062002004501190000111140000000000A10107000001000012700076000079000000012701523048N0000N000000776NN1599135467N5N8   000000070424N  N  N              000000000000000000                        1L1 1000001600321 YN00930020240000NN          050419BZ                 0 0974
1600000000000107901110008600507700000KOPP ROAD GS             I 86  EBL         2.7 E. AMERICAN FALLS    304800665031000000I08600424814001124835000023010101195902020098002004501160000111140000000000A11107000001000012500076000079000000012501533048H0437H003003777NN159913547735N8   000000070424N  N  N              000000000000000000                        1R1 1000001600211 YN01470020240000NN          050419BA                 2 0930
1600000000000107951110008600507700000KOPP ROAD GS             I 86  WBL         2.7 E. AMERICAN FALLS    304800665041000000I08600424815001124837000023010101195902020098002004501160000111140000000000A11107000001000012600076000079000000012601533048H0427H003003777NN159913547735N8   000000070424N  N  N              000000000000000000                        1L1 1000001600211 YN01470020240000NN          050419BA                 2 0930
1600000000000108001110008600507700000LEYSHON ROAD GS          I 86  EBL         3.9 E. AMERICAN FALLS    304800683941000000I08600424854001124732000023010101195902010098002004501160000111140000000000A11107000001000012500076000079000000012501533048H0427H003003776NN159913546735N8   000000070424N  N  N              000000000000000000                        1R1 1000001600211 YN01470020240000NN          050419BA                 2 0930
1600000000000108051110008600507700000LEYSHON ROAD GS          I 86  WBL         3.9 E. AMERICAN FALLS    304800683951000000I08600424855001124733000023010101195902010098002004501160000111140000000000A11107000001000012600076000079000000012601533048H0437H003003777NN159913547735N8   000000070424N  N  N              000000000000000000                        1L1 1000001600211 YN01470020240000NN          050419BA                 2 0930
1600000000000108101110008600507700000CO.RD.;SEAGULL BAY IC    I 86  EBL         5.7 E. AMERICAN FALLS    304800713201000000I08600425004001124611000003010101196302020098002004501160150111140000000000A61102000003000011600113000341000000011601223048H0523H003000766NN 432 3066635N8   000000070424N  N  N              000000000000000000                        1R1 1000001600211 YN01470020240000NN          050419BA                 2 0932
1600000000000108151110008600507700000CO.RD.;SEAGULL BAY IC    I 86  WBL         5.7 E. AMERICAN FALLS    304800713211000000I08600425005001124615000003010101196302020098002004501190150111140000000000A61102000003000011600113000341000000011601223048H0501H003000766NN 432 3066635N8   000000070424N  N  N              000000000000000000                        1L1 1000001600211 YN01470020240000NN          050419BA                 2 0932
1600000000000108201110008600507700000UPRR;IGO OVERPASS        I 86  EBL         6.0 E. AMERICAN FALLS    304800717931000000I08600425018001124609000023010101196302000100002004501190550111140000000000A12502000003000009300262000780000000009301063048R0693R037000775NN 369 2615455N8311000896070424N  N  N              0011730001170017602004                    1R1 1000001600211 YN01500020240000NN          050419BZ                 0 0623
1600000000000108251110008600507700000UPRR;IGO OVERPASS        I 86  WBL         6.0 E. AMERICAN FALLS    304800717941000000I08600425020001124610000023010101196302000100002004501190550111140000000000A12502000003000009300262000780000000009301063048R0699R037000765NN 369 2615455N8311000896070424N  N  N              0011730001170017602004                    1L1 1000001600211 YN01500020240000NN          050419BZ                 0 0623
1600000000000108351110008600507700000BANNOCK CREEK            I 86  EBL         13.4 E. AMERICAN FALLS   304800836731000000I08600425310001123833000023010101197202000100002004501160020111140000000000A15502000001000012400250000253000000012401333048N0000N0000007778N 432 30677N588   000000070424N  N  N              000000000000000000                        1R1 1100001600211 Y801500020240000NN          050419BZ                 0 0963
1600000000000108401110008600507700000BANNOCK CREEK            I 86  WBL         13.4 E. AMERICAN FALLS   304800836861000000I08600425312001123833000023010101197202000100002004501160020111140000000000A15502000001000012400250000253000000012401333048N0000N0000007778N 432 30677N588   000000070424N  N  N              000000000000000000                        1L1 1000001600211 Y801500020240000NN          050419BZ                 0 0963
1600000000000108501110008600507700000UPRR;POCATELLO AIRPORT   I 86  EBL         6.1 W. CHUBBUCK          304800887181000000I08600425359001123500000023010101196802000105002004501160230000040000000000A12502000003000011400192000521000000011401233048R0706R075000786NN 432 3066595N8   000000070424N  N  N              000000000000000000                        1R1 1100001600201 YN01575020240000NN          050419BZ                 0 0922
1600000000000108551110008600507700000UPRR;POCATELLO AIRPORT   I 86  WBL         6.1 W. CHUBBUCK          304800887201000000I08600425400001123504000023010101196802000105002004501160230000040000000000A12502000003000011400192000521000000011401233048R0704R064000787NN 432 3067595N8   000000070424N  N  N              000000000000000000                        1L1 1000001600201 YN01575020240000NN          050419BZ                 0 0922
1600000000000108701110008600500500000PORTNEUF RIVER           I 86  EBL         2.7 W. CHUBBUCK          304800941431000000I08600425444001123115000023010101196802000105002004501160000111140000000000A15102000003000011400098000293000000011401233048N0000N0000007766N 486 35165N588   000000080424N  Y60N      0801    000000000000000000                        1R1 1100001600221 Y301575020240000NN          050419BZ                 0 0960
1600000000000108751110008600500500000PORTNEUF RIVER           I 86  WBL         2.7 W. CHUBBUCK          304800941451000000I08600425446001123115000023010101196802000105002004501160000111140000000000A15102000003000011400098000293000000011401233048N0000N0000007766N 486 35165N588   000000080424N  N  N              000000000000000000                        1N1 1100001600221 Y301575020240000NN          050419BZ                 0 0960
1600000000000108851110008600500514680SMA 7031;HAWTHORNE RD.GS I 86  EBL         IN CHUBBUCK              304800974871000000I08600425446001122835000023010111196802020105002004501190000111140000000000A11502000003000011400122000375000000011401233048H0455H015000675NN 405 2885535N8351000375080424N  N  N              0000200000020000302003                    1R1 1000001600221 YN01575020240000NN          050419BA                 2 0785
1600000000000108901110008600500514680SMA 7031;HAWTHORNE RD.GS I 86  WBL         IN CHUBBUCK              304800974891000000I08600425447001122835000023010111196802020105002004501190000111140000000000A11502000003000011400122000375000000011401233048H0452H017000675NN 405 2885535N8351000375080424N  N  N              0000200000020000302003                    1L1 1000001600221 YN01575020240000NN          050419BA                 2 0785
1600000000000109001110008600500564090UPRR;CHUBBUCK OVERPASS   I 86  EBL         0.4 E. CHUBBUCK          304800991981000000I08600425445001122733000023010111196302000220002004501190090111140000000000A12302000003000011600216000518000000011601223048R0719R152000766NN 432 2796695N8   000000080424N  N  Y48        0501000000000000000000                        1R1 1000001600131 YN03300020240000NN          050419BZ                 0 0928
1600000000000109051110008600500564090UPRR;CHUBBUCK OVERPASS   I 86  WBL         0.4 E. CHUBBUCK          304800992001000000I08600425446001122732000023010111196302000220002004501190090111140000000000A12302000003000011600216000518000000011601223048R0714R152000766NN 432 2796695N8   000000080424N  N  Y48        0501000000000000000000                        1L1 1000001600131 YN03300020240000NN04M0015   050419BZ  04M086201611   0 0928
1600000000000109101110008600500500722HILINE RD.GS;FT.HALL CNL I 86  EBL         0.8 E. CHUBBUCK          304800998311000000I08600425445001122704000023010111196302020220002004501160180111140000000000A16502000004000011600207000604000000011601223048H0450H0340006657N 405 288565588   000000080424N  N  N              000000000000000000                        1R1 1000001600131 Y803300020240000NN          050419BZ                 0 0813
1600000000000109151110008600500500722HILINE RD.GS;FT.HALL CNL I 86  WBL         0.8 E. CHUBBUCK          304800998321000000I08600425447001122704000023010111196302020220002004501160180111140000000000A16502000004000011600207000604000000011601223048H0432H0240006657N 405 288564588351000604080424N  N  N              0000720000070000802003                    1L1 1000001600131 Y803300020240000NN          050419BZ                 0 0803
1600000000000109201560008600507700000I 86 EB-WB;ROCKLAND IC   I 86B ROCKLAND IC 2.9 W. AMERICAN FALLS    052300000340000000000000424458001125248000003010107195902040013002004500910300111140000000000A61501000005000008800177000747000000008800983048H0516H035013666NN 898 5086545N8   000000090424N  N  N              000000000000000000                        1N2 0019852601151 YN00195020240000NN          050419BZ                 0 0888
1600000000000109251560008600507700000I 86 EB-WB;AM.FALLS IC   I 86B AM FALLS IC 1.6 E. AMERICAN FALLS    30480007248100000IB08603424734001124944000003010106195902040046002004501040300111140000000000A61502000005000008500177000747000000008501003048H0452H036031656NN 315 2165435N8361000853070424N  N  N              0014630001460021952004                    0N2 00000016001101YN00690020240000NN1180015   050419BA  118172110211   2 0565
1600000000000109301410000000507700000UPRR; IGO OVERPASS       FRONTAGE ROAD     4.3 E. AMERICAN FALLS    304800034760000000000000425006001124618000023020209193502000004302004200850450000030000000000A12204000003000007900186000552000000007900913048R0709R039000454NN143212614555N5311000658040412N  N  N              0007000000700010502004                    0N2 0000001100100 YN00064520240000NN          050419BA                 1 0543
1600000000000109351170008600500514680I 15 NB TO I 86 WB RAMP  I 86  RAMP EB OFF 1.2 E. CHUBBUCK          304800001830000000000000425446001122634000003010111196301010038002004501040350111140000000000A61502000003000009800192000521000000009801043048H0539H032050675NN148112905995N8   000000080424N  N  N              000000000000000000                        0N1 1000001600100 YN00570020240000NN          050419BZ                 0 0870
1600000000000109551110001500507100000STC 1702;WOODRUFF RD.IC  I 15  NBL         10.3 S. MALAD            304800040781000000I01500420212001121239000003010101197502020087002004501160000111140000000000A61505000001000012300411000415000000012301333048H0511H034000666NN545053246775N8   000000100324N  N  N              000000000000000000                        1R1 1000001400211 YN01305020240000NN          050419BZ                 0 0980
1600000000000109651110001500507100000STC 1702;WOODRUFF RD.IC  I 15  SBL         10.3 S. MALAD            304800040791000000I01500420212001121241000003010101197502020087002004501160000101040000000000A61505000001000012300411000415000000012301333048H0556H034000667NN545053246775N8   000000100324N  N  N              000000000000000000                        1L1 1000001400211 YN01305020240000NN          050419BZ                 0 0970
1600000000000109701110001500507100000SAMARIA ROAD GS          I 15  NBL         6.8 S. MALAD             304800098381000000I01500420515001121307000003010101197502020086002004501160000111140000000000A11502000003000012400183000344000000012401333048H0442H043000676NN168014056765N8   000000100324N  N  N              000000000000000000                        1R1 1000001400211 YN01290020240000NN          050419BZ                 0 0980
1600000000000109751110001500507100000SAMARIA ROAD GS          I 15  SBL         6.8 S. MALAD             304800098401000000I01500420515001121309000023010101197502020086002004501160000101040000000000A11502000003000012400183000344000000012401333048H0434H043000676NN168014056755N8   000000100324N  N  N              000000000000000000                        1L1 1000001400211 YN01290020240000NN          050419BZ                 0 0952
1600000000000109801110001500507100000FOUR MILE CREEK RD GS    I 15  NBL & SBL   4.3 S. MALAD             304800138371000000I01500420724001121306000023010101197504010086002004501162070NNNN40000000000A11107000001000012800061000064000000070707133048H0422H000000777NN155813337935N8   000000100324N  N  N              000000000000000000                        1N2 1000001600211 YN01290020240000NN          050419BA                 2 0932
1600000000000109901110001500507100000TWO MILE RD.GS           I 15  NBL         1.5 S. MALAD             304800183061000000I01500420941001121312000023010101197502020086002004501160160111140000000000A11502000003000012300183000372000000012401333048H0457H034000787NN167113997755N8   000000100424N  N  N              000000000000000000                        1R1 1000001400211 YN01290020240000NN          050419BZ                 0 0962
1600000000000109951110001500507100000TWO MILE RD.GS           I 15  SBL         1.5 S. MALAD             304800183081000000I01500420941001121314000023010101197502020086002004501160160111140000000000A11502000003000012300183000372000000012401333048H0505H034000777NN167113967755N8   000000100424N  N  N              000000000000000000                        1L1 1000001400211 YN01290020240000NN          050419BZ                 0 0962
1600000000000110001110001500507150140SH 38;MALAD CITY IC      I 15  NBL         AT MALAD                 304800207191000000I01500421058001121355000003010101197502020086002004501160200011140000000000A61505000001000012300396000399000000012401333048H0539H043000556NN165313905795N8   000000100424N  N  N              000000000000000000                        1R1 1000001600211 YN01290020240000NN          050419BZ                 0 0860
1600000000000110051110001500507150140SH 38;MALAD CITY IC      I 15  SBL         AT MALAD                 304800207201000000I01500421058001121357000003010101197502020086002004501160200011140000000000A61505000001000012300396000399000000012401333048H0544H043000556NN165313905795N8   000000100424N  N  N              000000000000000000                        1L1 1000001600211 YN01290020240000NN          050419BZ                 0 0860
1600000000000110251110001500507100000COLTON LANE RD.IC        I 15  NBL         8.8 N. MALAD             304800346151000000I01500421814001121234000023010101197102020078002004501160000111140000000000A61502000003000012400134000387000000012401333048H0498H030000675NN147713785765N8   000000070324N  N  N              000000000000000000                        1R1 1019871601221 YN01170020240000NN          050419BZ                 0 0862
1600000000000110301110001500507100000COLTON LANE RD.IC        I 15  SBL         8.8 N. MALAD             304800346171000000I01500421815001121235000003010101197102020078002004501160000100040000000000A61502000003000012300134000387000000012301333048H0536H030000565NN147713785765N8   000000070324N  N  N              000000000000000000                        1L1 1019881601221 YN01170020240000NN          050419BZ                 0 0840
1600000000000110351110001500507100000BISSELL LANE RD.GS       I 15  NBL         10.3 N. MALAD            304800370521000000I01500421932001121311000023010101197102020077002004501160000101140000000000A11502000003000012400125000384000000012401333048H0574H024000675NN 495 3875755N8   000000060424N  N  N              000000000000000000                        1R1 1019871101221 YN01155020240000NN          050419BZ                 0 0852
1600000000000110401110001500507100000BISSELL LANE RD.GS       I 15  SBL         10.3 N. MALAD            304800370531000000I01500421931001121312000023010101197102020077002004501160000101140000000000A11502000003000012400125000384000000012401333048H0457H024000575NN 495 3875755N8311000472060424N  N  N              0006180000620009282004                    1L1 1019881101221 YN01155020240000NN          050419BZ                 0 0842
1600000000000110501110001500500500000MARSH VALLEY ROAD        I 15  NBL         13.8 N. MALAD            304800430871000000I01500422230001121236000023010101197102020077002004501160000101140000000000A11502000003000012400134000387000000012401333048H0444H006000675NN147713785735N8   000000060424N  N  N              000000000000000000                        1R1 1019871101221 YN01155020240000NN          050419BA                 2 0821
1600000000000110551110001500500500000MARSH VALLEY ROAD        I 15  SBL         13.8 N. MALAD            304800430881000000I01500422230001121237000023010101197102020077002004501160000101140000000000A11502000003000012400134000387000000012401333048H0503H006000575NN147713785735N8   000000060424N  N  N              000000000000000000                        1L1 1019881101221 YN01155020240000NN          050419BA                 2 0811
1600000000000110601110001500500500000WOODLAND RD.GS           I 15  NBL         11.8 S. ARIMO            304800473581000000I01500422436001121129000023010101197102020077002004501160150101140000000000A11502000003000012400146000424000000012401333048H0602H006000665NN154013335735N8   000000060424N  N  N              000000000000000000                        1R1 1019871101221 YN01155020240000NN          050419BA                 2 0821
1600000000000110651110001500500500000WOODLAND RD.GS           I 15  SBL         11.8 S. ARIMO            304800473601000000I01500422436001121132000023010101197102020077002004501160150101140000000000A11502000003000012400146000424000000012401333048H0470H006000665NN154013335735N8   000000060424N  N  N              000000000000000000                        1L1 1019881101221 YN01155020240000NN          050419BA                 2 0821
1600000000000110701110001500500500000MARSH CREEK              I 15  NBL & SBL   11.1 S. ARIMO            304800485671000000I01500422518001121112000243010101197104000077002004501162000101140000000000A15102000001000099900131000134000000033703473048N0000N0000006758N1581135159N588   000000070324N  N  N              000000000000000000                        1N2 1000001300221 Y801155020240000NN0440112   050419BL* 044015109112   0 0771
1600000000000110751110001500500500000SH 40;DOWNEY IC          I 15  NBL         10.3 S. ARIMO            304800496801000000I01500422550001121055000023010101197102020077002004501160200111140000000000A61502000003000012400162000494000000012401333048H0538H018000565NN 432 3065745N8   000000070324N  N  N              000000000000000000                        1R1 1019871600221 YN01155020240000NN0440112   050419BL* 044015109112   0 0823
1600000000000110801110001500500500000SH 40;DOWNEY IC          I 15  SBL         10.3 S. ARIMO            304800496961000000I01500422550001121057000003010101197102020077002004501160200111140000000000A61502000003000012400162000494000000012401333048H0526H018000565NN 432 3065745N8   000000070324N  N  N              000000000000000000                        1L1 1019881601221 YN01155020240000NN0440112   050419BL* 044015109112   0 0832
1600000000000111001110001500500500000STC 1755;ARIMO RD.IC     I 15  NBL         8.2 S. MCCAMMON          304800650991000000I01500423402001121045000023010101196402020088002004501160300111140000000000A61502000003000011400131000408000000011401193048H0556H012000676NN154013246545N8   000000070324N  N  N              000000000000000000                        1R1 1000001600201 YN01320020240000NN          050419BZ                 0 0941
1600000000000111051110001500500500000STC 1755;ARIMO RD.IC     I 15  SBL         8.2 S. MCCAMMON          304800651011000000I01500423402001121046000023010101196402020088002004501160300111140000000000A61502000003000011400131000408000000011401193048H0564H012000676NN154013246545N8   000000070324N  N  N              000000000000000000                        1L1 1000001600201 YN01320020240000NN          050419BZ                 0 0941
1600000000000111201110001500500500000ROBIN RD GS              I 15  NBL         2.8 S. MCCAMMON          304800737451000000I01500423830001121224000023010101196402020088002004501160300111140000000000A11502000003000011400131000411000000011401203048H0498H016000676NN149513246545N8   000000070324N  N  N              000000000000000000                        1R1 1000001600201 YN01320020240000NN          050419BZ                 0 0941
1600000000000111251110001500500500000ROBIN RD GS              I 15  SBL         2.8 S. MCCAMMON          304800737461000000I01500423831001121222000023010101196402020088002004501160300111140000000000A11502000003000011400131000411000000011401203048H0505H018000676NN149513246545N8   000000070324N  N  N              000000000000000000                        1L1 1000001600201 YN01320020240000NN          050419BZ                 0 0941
1600000000000111351110001500500500000PORTNEUF RIVER           I 15  NBL         1.6 S. INKOM             304800894991000000I01500424655001121350000023010101196302000140002004501160000111140000000000A15502000003000011600149000460000000011601223048N0000N0000007867N1486129766N598   000000060424N  N  N              000000000000000000                        1R1 1000001600201 Y302100020240000NN          050419BZ                 0 0952
1600000000000111401110001500500500000PORTNEUF RIVER           I 15  SBL         1.6 S. INKOM             304800895001000000I01500424655001121351000023010101196302000140002004501160000111140000000000A15502000003000011600149000460000000011601223048N0000N0000006867N1486129766N588   000000060424N  N  N              000000000000000000                        1L1 1000001600201 Y302100020240000NN          050419BZ                 0 0952
1600000000000111451110001500500500000STC 1758;UPRR;INKOM OP   I 15  NBL         1.3 S. INKOM             304800899831000000I01500424710001121400000023010101196302020140002004501160550111140000000000A14502000006000009200265001186000000009201063048H0582H024000676NN153513186455N8311001305060424N  N  N              0017080001710025622004                    1R1 1000001620201 YN02100020240000NN          050419BZ                 0 0782
1600000000000111501110001500500500000STC 1762;UPRR;INKOM OP   I 15  SBL         1.3 S. INKOM             304800899851000000I01500424711001121402000023010101196302020140002004501160550111140000000000A14502000006000009100265001216000000009101063048H0541H024000676NN153513186455N8311001305060424N  N  N              0017080001710025622004                    1L1 1000001620201 YN02100020240000NN          050419BZ                 0 0782
1600000000000111551170001500500500000I 15B;S.INKOM IC         I 15 NBL          0.5 E. INKOM             304800911451000000I01500424736001121436000023010101196202010132002004501160300111140000000000A61102000003000011600113000347000000011601223048H0501H030024667NN152613186945N8   000000060424N  N  N              000000000000000000                        0R1 1000001620210 YN01980020240000NN          050419BZ                 0 0966
1600000000000111601170001500500500000I 15B;S.INKOM IC         I 15 SBL          0.5 E. INKOM             304800911471000000I01500424736001121437000023010101196202020132002004501160300111140000000000A61102000003000011600113000347000000011601223048H0501H027027767NN152613186935N8   000000060424N  N  N              000000000000000000                        0L1 1000001620210 YN01980020240000NN          050419BA                 2 0946
1600000000000111651110001500500540330RAPID CREEK;INKOM        I 15  NBL         0.1 E. INKOM             304800917891000000I01500424736001121430000023010101196302000132002004501160000111140000000000A15502000003000011600149000460000000011601223048N0000N0000007768N1486129766N588   000000090324N  N  N              000000000000000000                        1R1 1000001620211 Y801980020240000NN          050419BZ                 0 0953
1600000000000111701110001500500540330RAPID CREEK;INKOM        I 15  SBL         0.1 E. INKOM             304800917901000000I01500424748001121454000023010101196302000132002004501160000111140000000000A15502000003000011600149000460000000011601223048N0000N0000007768N1486129766N588   000000090324N  N  N              000000000000000000                        1L1 1000001620211 Y801980020240000NN          050419BZ                 0 0953
1600000000000111751110001500500540330MAIN STREET GS           I 15  NBL         IN INKOM;MAIN ST.        304800920091000000I01500424754001121500000023010101196202020132002004501160300111140000000000A11102000003000011800125000378000000011801223048H0475H008000666NN154913246635N8   000000090324N  N  N              000000000000000000                        1R1 1000001620211 YN01980020240000NN          050419BA                 2 0927
1600000000000111801110001500500540330MAIN STREET GS           I 15  SBL         IN INKOM;MAIN ST.        304800920111000000I01500424754001121500000023010101196202020132002004501160300111140000000000A11102000003000011700125000378000000011701223048H0450H008000766NN154913246635N8   000000090324N  N  N              000000000000000000                        1L1 1000001620211 YN01980020240000NN          050419BA                 2 0927
1600000000000111851110001500500540330I 15B;W.INKOM IC         I 15  NBL         0.5 W. INKOM             304800928351000000I01500424800001121542000023010101196202020132002004501160000111140000000000A61102000003000011600113000347000000011601223048H0488H003000775NN151713085625N8311000445090324N  N  N              0005830000580008742003                    1R1 1000001620211 YN01980020240000NN          050419BA                 2 0808
1600000000000111901110001500500540330I 15B;W.INKOM IC         I 15  SBL         0.5 W. INKOM             304800928361000000I01500424800001121542000023010101196202020132002004501160000111140000000000A61102000003000011600113000347000000011601223048H0482H003000676NN151713086635N8   000000090324N  N  N              000000000000000000                        1L1 1000001620211 YN01980020240000NN          050419BA                 2 0920
1600000000000111951110001500500500000BLACKROCK RD.GS          I 15  NBL         4.6 W. INKOM             304800994281000000I01500424800001122030000023010101196502020155002004501160300111140000000000A11107000001000012000088000091000000013401403048H0478H000000777NN156213367935N8   000000090324N  N  N              000000000000000000                        1R1 1000001600191 YN02325020240000NN          050419BA                 2 0925
1600000000000112001110001500500500000BLACKROCK RD.GS          I 15  SBL         4.6 W. INKOM             304800994301000000I01500424800001122030000023010101196502020155002004501160300111140000000000A11107000001000012000088000091000000013401403048H0475H000000677NN159013547935N8   000000090324N  N  N              000000000000000000                        1L1 1000001600191 YN02325020240000NN          050419BA                 2 0925
1600000000000112051110001500500500000STC 1762;PORTNEUF RD IC  I 15  NBL         5.9 W. INKOM             304801014251000000I01500424806001122148000023010101196302020155002004501160450111140000000000A61502000003000011500162000503000000011601223048H0523H005000765NN152213155625N8311000643090324N  N  N              0008430000840012642003                    1R1 1000001620191 YN02325020240000NN          050419BA                 2 0810
1600000000000112101110001500500500000STC 1762;PORTNEUF RD IC  I 15  SBL         5.9 W. INKOM             304801014271000000I01500424806001122148000023010101196302020155002004501160450111140000000000A61502000003000011500162000503000000011601223048H0524H005000775NN152213155625N8311000643090324N  N  N              0008430000840012642003                    1L1 1000001620191 YN02325020240000NN          050419BA                 2 0810
1600000000000112251110001500500564090I 15B;S.POCATELLO IC     I 15  NBL         2.6 S. POCATELLO         304801074731000000I01500425024001122442000003010101196502040170002004501160590111140000000000A61502000004000009100223000856000000009101013048H0566H014018776NN 405 2886425N8311000914090324N  N  N              0011970000120017962003                    1R1 1000001600181 YN02550020240000NN          050419BA                 2 0748
1600000000000112301110001500500564090I 15B;S.POCATELLO IC     I 15  SBL         2.6 S. POCATELLO         304801074751000000I01500425024001122442000003010101196502040170002004501160590111140000000000A61502000004000009100223000856000000009101013048H0521H014018776NN 405 2886425N8311000914090324N  N  N              0011970001200017962003                    1L1 1000001600181 YN02550020240000NN          050419BA                 2 0748
1600000000000112351110001500500564090BARTON RD.GS             I 15  NBL         1.7 S. POCATELLO         304801089171000000I01500425112001122454000023010101196402020180002004501160000111140000000000A11102000003000011400113000335000000011401203048H0479H011000766NN154013246535N8   000000090324N  N  N              000000000000000000                        1R1 1000001600171 YN02700020240000NN          050419BA                 2 0912
1600000000000112401110001500500564090BARTON RD.GS             I 15  SBL         1.7 S. POCATELLO         304801089191000000I01500425112001122454000023010101196402020180002004501160000111140000000000A11102000003000011400113000335000000011401203048H0470H011000766NN154013246535N8   000000090324N  N  N              000000000000000000                        1L1 1000001600171 YN02700020240000NN          050419BA                 2 0912
1600000000000112451110001500500564090SMA 7461;BUCKSKIN RD.GS  I 15  NBL         0.6 S. POCATELLO         304801106631000000I01500425206001122518000023010101196402030180002004501160080111140000000000A11102000004000011400113000463000000011401203048H0518H013006776NN147712886545N8   000000090324N  N  N              000000000000000000                        1R1 1000001600171 YN02700020240000NN          050419BZ                 0 0910
1600000000000112501110001500500564090SMA 7461;BUCKSKIN RD.GS  I 15  SBL         0.6 S. POCATELLO         304801106651000000I01500425206001122518000023010101196402020180002004501160080111140000000000A11102000004000011400113000463000000011401203048H0478H012006675NN147712885545N8311000594090324N  N  N              0007780000780011672003                    1L1 1000001600171 YN02700020240000NN          050419BZ                 0 0797
1600000000000112551110001500500564090STP 7341;CENTER ST.IC    I 15  NBL         IN POCATELLO             304801116621000000I01500425232001122626000023010101196602040180002004501160150111140000000000A61502000003000011300162000433000000011301193048H0554H000000675NN147712885525N8311000518060324N  N  N              0004010000400006022001                    1R1 1000001600171 YN02700020240000NN          050419BA                 2 0776
1600000000000112601110001500500564090STP 7341;CENTER ST.IC    I 15  SBL         IN POCATELLO             304801116641000000I01500425231001122531000023010101196602040180002004501160150111140000000000A61502000003000011300162000433000000011301193048H0516H000000675NN147712885535N8351000433060324N  N  N              0000600000060000672003                    1L1 1000001600171 YN02700020240000NN          050419BA                 2 0776
1600000000000112711110001500500564090I 15B;POCATELLO CREEK IC I 15  NBL         IN POCATELLO             304801142421000000I0150042535100112260800002301010119990207031500200490116015011114N000000000A61402000002000012300223000451000000017701863048H0501H023012788NN180714908945N8   000000110424N  N  N              000000000000000000                        1N1 1000001101101 YN04725020240000NNQ200009   050419BL* Q20003100109   0 0930
1600000000000112761110001500500564090I 15B;POCATELLO CREEK IC I 15  SBL         IN POCATELLO             304801142441000000I0150042535100112261000000301011119980207031500200490116015011114N000000000A61402000002000012300223000451000000017801893048H0501N023012788NN5572540889N5N8   000000110424N  N  N              000000000000000000                        1N1 1000001101101 YN04725020240000NN          050419BZ                 0 0980
1600000000000112801110001500500514680I 15SB OVER I 86WB RAMP  I 15  SBL         2.7 N. POCATELLO         304801158891000000I01500425442001122626000003010101196202010140002004501190510111140000000000A61502000003000011600299000658000000011601223048H0493H024046666NN146812796655N8   000000060424N  N  N              000000000000000000                        1N1 1000001600121 YN02100020240000NN          050419BZ                 0 0939
1600000000000112851110001500500514680I 15SB OVER I 86EB RAMP  I 15  SBL         2.9 N. POCATELLO         304801161141000000I01500425450001122627000003010101196202010140002004501190510111140000000000A61502000003000011600299000698000000011601223048H0501H049067766NN146812796655N8   000000060424N  N  N              000000000000000000                        1N1 1000001600121 YN02100020240000NN          050419BZ                 0 0939
1600000000000113051110001500500500000PRIVATE RD.;MACHINE PASS I 15  NBL         6.9 N. POCATELLO         304801226691000000I01500425815001122531000023010101195902000215002004501190000111140000000000A10107000001000012400076000079000000014001463048N0000N000000776NN1626137269N588   000000050424N  N  N              000000000000000000                        1R1 1100001600151 YN03225020240000NN          050419BZ                 0 0960
1600000000000113101110001500500500000PRIVATE RD.;MACHINE PASS I 15  SBL         6.9 N. POCATELLO         304801226701000000I01500425815001122530000023010101195902000215002004501190000111140000000000A10107000001000013400076000079000000014001463048N0000N000000776NN1626137269N588   000000050424N  N  N              000000000000000000                        1L1 1100001600151 YN03225020240000NN          050419BZ                 0 0960
1600000000000113151110001500500500000PRIVATE RD.;MACHINE PASS I 15  NBL         8.2 N. POCATELLO         304801232961000000I01500425924001122458000023010101195902000215002004501160000111140000000000A10107000001000012300076000079000000014001463048N0000N000000776NN1617137269N588   000000050424N  N  N              000000000000000000                        1R1 1100001600151 YN03225020240000NN          050419BZ                 0 0960
1600000000000113201110001500500500000PRIVATE RD.;MACHINE PASS I 15  SBL         8.2 N. POCATELLO         304801233001000000I01500425924001122459000023010101195902000215002004501160000111140000000000A10107000001000012500076000079000000014001463048N0000N000000776NN1617137269N588   000000050424N  N  N              000000000000000000                        1L1 11000016001511YN03225020240000NN          050419BZ                 0 0960
1600000000000113351110001500500500000FORT HALL MAIN CANAL     I 15  NBL         9.8 N. POCATELLO         304801274771000000I01500430044001122428000023010101196002000215002004501160000111140000000000A15502000003000011600149000341000000011601233048N0000N0000007766N1360121656N588   000000030424N  N  N              000000000000000000                        1R1 1100001600151 Y803225020240000NN          050419BZ                 0 0831
1600000000000113401110001500500500000FORT HALL MAIN CANAL     I 15  SBL         9.8 N. POCATELLO         304801274791000000I01500430044001122430000023010101196002000215002004501160000111140000000000A15502000003000011600149000341000000011601223048N0000N0000007767N1360121656N588   000000030424N  N  N              000000000000000000                        1L1 1100001600151 Y803225020240000NN          050419BZ                 0 0831
1600000000000114151110001500501100000GIBSON CANAL             I 15  NBL         5.5 S. BLACKFOOT         304801400741000000I01500430726001122318000023010101195902000200002004501160480000040000000000A15107000001000012400064000064000000014101473048N0000N0000006668N1531132469N588   000000020524N  N  N              000000000000000000                        1R1 1100001600161 Y803000020240000NN          050419BZ                 0 0931
1600000000000114201110001500501100000GIBSON CANAL             I 15  SBL         5.5 S. BLACKFOOT         304801400751000000I01500430726001122320000023010101195902000200002004501160470001140000000000A15107000001000012400064000064000000013701433048N0000N0000007778N1531132479N588   000000020524N  N  N              000000000000000000                        1L1 1100001600161 Y803000020240000NN          050419BZ                 0 0951
1600000000000114401110001500501100000I 15B;UPRR;S.BLACKFOOT I I 15  SBL         3.8 S. BLACKFOOT         304801427941000000I01500430855001122320000023010101196102020200002004501160350111140000000000A64502000005000009100238001195000000009101063048H0764H015000777NN 297 2075445N8311001280060424N  N  N              0016760001680025142004                    1L1 1100001600161 YN03000020240000NN          050419BZ                 0 0619
1600000000000114451110001500501100000I 15B;UPRR;S.BLACKFOOT I I 15  NBL         3.8 S. BLACKFOOT         304801427951000000I01500430855001122319000023010101196102020200002004501160350111140000000000A64502000005000009100238001195000000009101063048H0762H015000677NN 297 2075445N8311001280060424N  N  N              0016760001680025142004                    1R1 1100001600161 YN03000020240000NN          050419BZ                 0 0619
1600000000000114501110001500501100000BLACKFOOT RIVER          I 15  NBL         2.2 S. BLACKFOOT         304801453891000000I01500431017001122310000023010101196202000175002004501160600111140000000000A15502000003000011600149000472000000011601223048N0000N0000006757N1495131556N588   000000110324N  Y60N      1000    000000000000000000                        1R1 1100001600171 Y302625020240000NN          050419BZ                 0 0848
1600000000000114551110001500501100000BLACKFOOT RIVER          I 15  SBL         2.2 S. BLACKFOOT         304801453911000000I01500431017001122312000023010101196202000175002004501160600111140000000000A15502000003000011600149000472000000011601223048N0000N0000006756N1495131556N588   000000110324N  Y60N      1000    000000000000000000                        1L1 1100001600171 Y302625020240000NN          050419BZ                 0 0848
1600000000000114651110001500501100000W.BRIDGE ST.GS;UPRR OP   I 15  NBL         0.3 S. BLACKFOOT         304801483911000000I01500431143001122200000023010111196202020175002004501160000111140000000000A14502000006000011600155000911000000011601223048H0841H024000687NN152213157645N8   000000060424N  N  N              000000000000000000                        1R1 1000001600171 YN02625020240000NN          050419BZ                 0 0940
1600000000000114701110001500501100000W.BRIDGE ST.GS;UPRR OP   I 15  SBL         0.3 S. BLACKFOOT         304801483921000000I01500431143001122201000023010111196202020175002004501160000111140000000000A14502000005000011600168000786000000011601223048H0818H020000687NN148613157645N8   000000060424N  N  N              000000000000000000                        1L1 1000001600171 YN02625020240000NN          050419BZ                 0 0940
1600000000000114751110001500501100000US 26;WEST BLACKFOOT IC  I 15  NBL         AT BLACKFOOT             304801488801000000I01500431154001122154000003010111196202050175002004501160000111140000000000A61102000004000011600146000479000000011601223048H0513H017008777NN153513187635N8   000000060424N  N  N              000000000000000000                        1R1 1000001100171 YN02625020240000NN          050419BA                 2 0939
1600000000000114801110001500501100000US 26;WEST BLACKFOOT IC  I 15  SBL         AT BLACKFOOT             304801488821000000I01500431154001122150000003010111196202050175002004501160000111140000000000A61102000004000011600146000479000000011601223048H0475H017010767NN153513186625N8311000573060424N  N  N              0004430000440006662001                    1L1 1000001600171 YN02625020240000NN          050419BA                 2 0939
1600000000000114861110001500501107840SNAKE RIVER;BLACKFOOT BR I 15  NBL         1.9 N. BLACKFOOT         304801518751000000I01500431318001122036000023010111200302000185002004901160450111140000000000A15602000007000012400360002533000036012401723048N0000N0000008888N 572 40887N588   000000090424N  Y60N              000000000000000000                        1R1 1000001101161 Y602775020240000NN          050419BZ                 0 0963
1600000000000114911110001530501100000SNAKE RIVER;BLACKFOOT BR I 15  SBL         1.9 N. BLACKFOOT         304801518771000000I0150143131600112203900001301011120020200018500200490122045011115N000000000A15602000007000012400360002533000000012401323048N0000N0000007888N 572 40887N588   000000090424N  Y60N      0902    000000000000000000                        1L1 1000001101161 Y602775020240000NN          050419BZ                 0 0971
1600000000000114951110001500501100000DANSKIN CANAL            I 15  NBL         2.1 N. BLACKFOOT         304801522151000000I01500431325001122030000023010111196202000185002004501160220111140000000000A15102000003000011600091000274000000011601233048N0000N0000006776N1540132476N588   000000030424N  N  N              000000000000000000                        1R1 1000001600161 Y802775020240000NN          050419BZ                 0 0963
1600000000000115001110001500501100000DANSKIN CANAL            I 15  SBL         2.1 N. BLACKFOOT         304801522161000000I01500431326001122030000023010111196202000185002004501160220111140000000000A15102000003000011600091000274000000011601233048N0000N0000006677N1540132466N588   000000030424N  N  N              000000000000000000                        1L1 1000001600161 Y802775020240000NN          050419BZ                 0 0963
1600000000000115101110001500501100000RIVERSIDE CANAL          I 15  NBL         2.5 N. BLACKFOOT         304801529191000000I01500431345001122013000023010111196202000185002004501160410001040000000000A15107000001000011900101000107000000011901463048N0000N0000007777N1468127976N588   000000030424N  N  N              000000000000000000                        1R1 1000001600161 Y802775020240000NN          050419BZ                 0 0911
1600000000000115151110001500501100000RIVERSIDE CANAL          I 15  SBL         2.5 N. BLACKFOOT         304801529361000000I01500431345001122014000023010111196202000185002004501160410001140000000000A15107000001000011900101000107000000011901463048N0000N0000007777N1531131576N588   000000030424N  N  N              000000000000000000                        1L1 1000001600161 Y802775020240000NN          050419BZ                 0 0950
1600000000000115201110001500501100000RIVERSIDE CANAL          I 15  NBL         3.3 N. BLACKFOOT         304801541541000000I01500431417001121945000023010111196202000185002004501160180001040000000000A15107000001000012100079000082000000013801463048N0000N0000007777N1558133379N588   000000020524N  N  N              000000000000000000                        1R1 1000001600161 Y802775020240000NN          050419BZ                 0 0943
1600000000000115251110001500501100000RIVERSIDE CANAL          I 15  SBL         3.3 N. BLACKFOOT         304801541551000000I01500431418001121945000023010111196202000185002004501160180001040000000000A15107000001000012100079000082000000013801463048N0000N0000007767N1558133369N588   000000020524N  N  N              000000000000000000                        1L1 1000001600161 Y802775020240000NN          050419BZ                 0 0943
1600000000000115351110001500501100000RIVERSIDE CANAL          I 15  NBL         4.8 N. BLACKFOOT         304801565651000000I01500431524001121845000023010101196202000185002004501160300001040000000000A15104000001000011600110000113000000011601223048N0000N0000007767N1363121856N588   000000020524N  N  N              000000000000000000                        1R1 1000001600161 Y802775020240000NN          050419BZ                 0 0817
1600000000000115401110001500501100000RIVERSIDE CANAL          I 15  SBL         4.8 N. BLACKFOOT         304801565661000000I01500431524001121849000023010101196202000185002004501160300001040000000000A15104000001000011600110000113000000011601223048N0000N0000007777N1363121856N588   000000020524N  N  N              000000000000000000                        1L1 1000001600161 Y802775020240000NN          050419BZ                 0 0817
1600000000000115501110001500501100000ABERDEEN SPRINGFIELD CNL I 15  NBL         5.8 N. BLACKFOOT         304801582001000000I01500431608001121808000023010101196202000185002004501160480001040000000000A15102000003000011600119000366000000011601233048N0000N0000007657N1481128156N588   000000020524N  N  N              000000000000000000                        1R1 1000001600161 Y802775020240000NN          050419BZ                 0 0800
1600000000000115551110001500501100000ABERDEEN SPRINGFIELD CNL I 15  SBL         5.8 N. BLACKFOOT         304801582011000000I01500431608001121810000023010101196202000185002004501160480001040000000000A15102000003000011600119000366000000011601233048N0000N0000007657N1481128156N588   000000020524N  N  N              000000000000000000                        1L1 1000001600161 Y802775020240000NN          050419BZ                 0 0800
1600000000000115601110001500501100000PEOPLES CANAL            I 15  NBL         5.8 N. BLACKFOOT         304801582561000000I01500431611001121810000023010101196202000185002004501160480001040000000000A15102000002000011600119000244000000011601233048N0000N0000007757N1481128156N588351000244020524N  N  N              0000150000020000232003                    1R1 1000001600161 Y802775020240000NN          050419BZ                 0 0800
1600000000000115651110001500501100000PEOPLES CANAL            I 15  SBL         5.8 N. BLACKFOOT         304801582581000000I01500431611001121810000023010101196202000185002004501160480001040000000000A15102000002000011600119000244000000011601233048N0000N0000006657N1481128156N588351000244020524N  N  N              0000150000020000232003                    1L1 1000001600161 Y802775020240000NN          050419BZ                 0 0800
1600000000000115801110001500501100000LAVA SIDE CANAL          I 15  NBL         6.9 N. BLACKFOOT         304801599841000000I01500431657001121725000023010101196202000185002004501160060001040000000000A15107000001000012100064000067000000014201473048N0000N0000007777N1617136979N588   000000020524N  N  N              000000000000000000                        1R1 1000001600161 Y802775020240000NN          050419BZ                 0 0943
1600000000000115851110001500501100000LAVA SIDE CANAL          I 15  SBL         6.9 N. BLACKFOOT         304801600011000000I01500431658001121727000023010101196202000185002004501160060001040000000000A15107000001000012100064000067000000014201473048N0000N0000007767N1617136969N588   000000020524N  N  N              000000000000000000                        1L1 1000001600161 Y802775020240000NN          050419BZ                 0 0943
1600000000000116151110001500501100000GREAT WESTERN CANAL      I 15  NBL         15.9 N. BLACKFOOT        304801745331000000I01500432316001121100000023010101196202000180002004501160300001040000000000A15107000001000012100070000070000000014101473048N0000N0000007777N1635137879N588   000000020524N  N  N              000000000000000000                        1R1 1000001600171 Y802700020240000NN          050419BZ                 0 0943
1600000000000116201110001500501100000GREAT WESTERN CANAL      I 15  SBL         15.9 N. BLACKFOOT        304801745491000000I01500432317001121103000023010101196202000180002004501160300001040000000000A15107000001000012100070000070000000014101473048N0000N0000007777N1608136079N588   000000020524N  N  N              000000000000000000                        1L1 1000001600171 Y802700020240000NN          050419BZ                 0 0943
1600000000000116901110001500601900000SIDEHILL CANAL           I 15  SBL         2.7 S. IDAHO FALLS       304801863731000000I01500432802001120517000023010101196202000150002004501190400111140000000000A15107000001000012700101000104000000012701463048N0000N0000006678N1608136067N588   000000110424N  N  N              000000000000000000                        1R1 1000001600201 Y802250020240000NN          050419BZ                 0 0966
